:100000000C9459000C9481000C9481000C94810094
:100010000C9481000C9481000C9481000C9481005C
:100020000C9481000C9481000C9481000C9481004C
:100030000C9481000C9481000C9481000C9481003C
:100040000C9458050C9481000C9445070C947F0780
:100050000C9481000C9481000C9481000C9481001C
:100060000C946B0A0C948100000000070002010050
:100070000003040600000000000000000102040864
:100080001020408001020408102001020408102002
:10009000040404040404040402020202020203032E
:1000A0000303030300000000250028002B00400884
:1000B000890911241FBECFEFD8E0DEBFCDBF11E00C
:1000C000A0E0B1E0E2E3F0E202C005900D92A23AB6
:1000D000B107D9F713E0A2EAB1E001C01D92AA313D
:1000E000B107E1F710E0C2EBD0E004C02297FE01B7
:1000F0000E941B0CCE3AD107C9F70E9414020C943F
:1001000017100C940000CF93DF93CDB7DEB780E8D3
:1001100090E0DF91CF910895CF93DF93CDB7DEB715
:1001200028970FB6F894DEBF0FBECDBF29833A8360
:100130004B835C836D837E838F83988789819A81CB
:10014000AB81BC81BC01CD010E94C50580E090E07F
:1001500028960FB6F894DEBF0FBECDBFDF91CF91CA
:100160000895CF93DF93CDB7DEB70E94A205DC01DF
:10017000CB01BC01CD01DF91CF910895CF93DF93E7
:10018000CDB7DEB78091A201882319F080E090E01E
:1001900009C08AE592E00E94550981E08093A2019E
:1001A00080E090E0DF91CF910895EF92FF920F935E
:1001B0001F93CF93DF93CDB7DEB72C970FB6F8948C
:1001C000DEBF0FBECDBF888769874A873C872B87F4
:1001D0008B859C85009719F08A85882319F480E81F
:1001E00091E0AAC09091A20181E08927882359F06B
:1001F0000E94BE00892F881F8827881F882319F036
:100200000E94BE0099C068858AE592E00E946C0950
:1002100069858AE592E00E94160961E08AE592E02C
:100220000E947609882F90E09B838A838A819B8134
:100230008230910549F08330910549F08130910574
:1002400049F481E891E078C082E891E075C083E8E4
:1002500091E072C021E04A8568858AE592E00E94BB
:100260005F09198262C08AE592E00E94BE0821E01F
:10027000009709F420E0222379F08981882F90E00B
:100280002B853C858901080F191F8AE592E00E94A1
:10029000C608F801808346C00E94B100DC01CB0192
:1002A0008C839D83AE83BF8300000E94B1009B01BD
:1002B000AC018C819D81AE81BF8179018A01E81AF0
:1002C000F90A0A0B1B0BD801C701883E03E090070F
:1002D000A105B10540F48AE592E00E94BE080097AE
:1002E00011F481E001C080E08823F9F68AE592E00C
:1002F0000E94BE0821E0009709F420E0222379F053
:100300008981882F90E02B853C858901080F191F72
:100310008AE592E00E94C608F801808303C084E861
:1003200091E00AC089818F5F898399818A859817B6
:1003300008F499CF80E090E02C960FB6F894DEBFD9
:100340000FBECDBFDF91CF911F910F91FF90EF9026
:1003500008950F93CF93DF93CDB7DEB728970FB6ED
:10036000F894DEBF0FBECDBF8B836C834D833F837C
:100370002E8308878E819F81009719F08D818823B5
:1003800019F480E891E046C09091A20181E08927AC
:10039000882359F00E94BE00892F881F8827881F54
:1003A000882319F00E94BE0035C06B818AE592E077
:1003B0000E946C096C818AE592E00E9416098D8189
:1003C000282F30E08E819F81A901BC018AE592E04F
:1003D0000E94E9088885682F8AE592E00E947609E4
:1003E000882F90E09A83898389819A818230910550
:1003F00049F08330910549F08130910549F481E855
:1004000091E008C082E891E005C083E891E002C075
:1004100080E090E028960FB6F894DEBF0FBECDBF07
:10042000DF91CF910F910895CF93DF93CDB7DEB7D2
:100430002A970FB6F894DEBF0FBECDBF26E0CE01DF
:100440000596FC01322F11923A95E9F719821A822A
:100450001B821C820E9426060E943A03892F881F55
:100460008827881F8823D9F00E943A03292F2F93C9
:100470008F938CE291E0892F8F938CE291E08F93A0
:1004800086E391E0892F8F9386E391E08F930E941A
:1004900002030F900F900F900F900F900F900E94FB
:1004A0003803892F881F8827881F8823D9F00E9446
:1004B0003803292F2F938F938AE491E0892F8F930C
:1004C0008AE491E08F9386E391E0892F8F9386E30E
:1004D00091E08F930E9402030F900F900F900F9066
:1004E0000F900F9028EE33E040E050E060E070E0C5
:1004F00080E090E00E948C0019821A821B821C828C
:1005000089819A819E012B5F3F4FB9010E943C0374
:10051000892F881F8827881F882309F189819A815C
:100520009E012B5F3F4FB9010E943C03292F2F935F
:100530008F9389E591E0892F8F9389E591E08F93DF
:1005400086E391E0892F8F9386E391E08F930E9459
:1005500002030F900F900F900F900F900F906985EE
:100560007A854F8158852D813E8189819A81880FB6
:10057000991F8A5F9E4FFC0180819181E72FEF9345
:100580006F93652F6F934F93432F4F932F93292F83
:100590002F938F938BE691E0892F8F938BE691E0D9
:1005A0008F930E9402038DB79EB70A960FB6F894F8
:1005B000DEBF0FBECDBF28EE33E040E050E060E08C
:1005C00070E080E090E00E948C0096CFEF92FF9266
:1005D0000F931F938091A30181110FC0E12CF12C87
:1005E00000E010E023E030E040E052EC61E070E039
:1005F0000E94340681E08093A3011F910F91FF9028
:10060000EF9008950F931F93CF93DF93CDB7DEB78D
:10061000DA950FB6F894DEBF0FBECDBFC95FDE4FCF
:1006200008811981C750D14001151105B1F08091A1
:10063000A301811102C00E94E6029E01275F3E4F86
:10064000A80160E071E0CE0101960E943C0DBE0160
:100650006F5F7F4F80E00E943F06D3950FB6F894FE
:10066000DEBF0FBECDBFDF91CF911F910F910895D7
:100670000C948D030C943E030C94A0040F93CF9321
:10068000DF931F92CDB7DEB780E8898301E09E013A
:100690002F5F3F4F41E06BE688E60E94A90697FF77
:1006A00009C09E012F5F3F4F41E06BE688E60E9444
:1006B000A90602C080E090E00F90DF91CF910F91EA
:1006C00008950F93CF93DF931F92CDB7DEB71982B2
:1006D00001E09E012F5F3F4F41E06AE08CE00E9405
:1006E000A90697FF09C09E012F5F3F4F41E06AE0D6
:1006F0008CE00E94A9060CC02AE030E040E050E007
:1007000060E070E080E090E00E948C0080E090E08B
:100710000F90DF91CF910F9108950F931F93CF9377
:10072000DF931F92CDB7DEB719829E012F5F3F4F37
:1007300041E065E788E60E94A70697FF09C09E0191
:100740002F5F3F4F41E065E788E60E94A706F2C0B1
:100750008981813709F0ECC0198201E09E012F5F89
:100760003F4F41E06BE688E60E94A90697FD17C05F
:1007700024E630E040E050E060E070E080E090E0AF
:100780000E948C0081E0898301E09E012F5F3F4F32
:1007900041E06BE688E60E94A90697FF06C09E012D
:1007A0002F5F3F4F41E06BE681C013E0198301E00A
:1007B0009E012F5F3F4F41E06AE188E60E94A90653
:1007C00097FF06C09E012F5F3F4F41E06AE16EC078
:1007D00084E0898301E09E012F5F3F4F41E069E1A2
:1007E00088E60E94A90697FF06C09E012F5F3F4F33
:1007F00041E069E15BC0198201E09E012F5F3F4F3C
:1008000041E06BE188E60E94A90697FF06C09E01C1
:100810002F5F3F4F41E06BE149C0198201E09E012B
:100820002F5F3F4F41E06CE188E60E94A90697FFE9
:1008300006C09E012F5F3F4F41E06CE137C0198336
:1008400001E09E012F5F3F4F41E06DE188E60E948D
:10085000A90697FF06C09E012F5F3F4F41E06DE163
:1008600025C082E2898301E09E012F5F3F4F41E076
:1008700067E388E60E94A90697FF06C09E012F5FE6
:100880003F4F41E067E312C011E0198301E09E0190
:100890002F5F3F4F41E068E388E60E94A90697FF7B
:1008A00007C09E012F5F3F4F41E068E388E62EC0FE
:1008B0002AE030E040E050E060E070E080E090E06E
:1008C0000E948C000E94610397FF03C00E94610395
:1008D00031C02AE030E040E050E060E070E080E0CD
:1008E00090E00E948C0080E1898301E09E012F5FEF
:1008F0003F4F41E06AE08CE00E94A90697FF09C0E3
:100900009E012F5F3F4F41E06AE08CE00E94A90604
:1009100011C02AE030E040E050E060E070E080E0AC
:1009200090E00E948C001093A40180E090E002C04F
:1009300080E092E80F90DF91CF911F910F91089581
:10094000CF92DF92EF92FF920F931F93CF93DF939B
:100950006C01EB01209709F494C08091A4018111EE
:100960000EC00E948D0397FF0AC0DF91CF911F91A7
:100970000F91FF90EF90DF90CF900C948D0381E06A
:10098000C816D10451F128F082E0C816D10419F03C
:100990007BC00BE323C09E0141E062E08CE00E943B
:1009A000A70697FF04C09E0141E062E00EC0888167
:1009B00080FF6DC09E0141E069E08CE00E94A706C7
:1009C00097FF05C09E0141E069E08CE014C088817A
:1009D00083FF60C003E01CE002C003E418E69E0150
:1009E00046E0602F812F0E94A70697FF0EC09E0150
:1009F00046E0602F812FDF91CF911F910F91FF90E3
:100A0000EF90DF90CF900C94A70688816981FA80DF
:100A1000EB801C810D81CD2809F03FC070E0782B60
:100A200080E090E00E944B0C20E030E040E858E38A
:100A30000E94D90C0E941F0C798368836E2D70E090
:100A40007F2980E090E00E944B0C20E030E040E8FD
:100A500058E30E94D90C0E941F0C7B836A83602F8D
:100A600070E0712B80E090E00E944B0C20E030E0C1
:100A700040E858E30E94D90C0E941F0C7D836C83D0
:100A80000CC082E092E80BC081E092E808C084E0EC
:100A900092E805C083E092E802C080E090E0DF9138
:100AA000CF911F910F91FF90EF90DF90CF9008951D
:100AB0001F920F920FB60F9211242F933F938F9393
:100AC0009F93AF93BF938091A6019091A701A091AE
:100AD000A801B091A9013091A50123E0230F2D3782
:100AE00020F40196A11DB11D05C026E8230F029632
:100AF000A11DB11D2093A5018093A6019093A7018C
:100B0000A093A801B093A9018091AA019091AB0193
:100B1000A091AC01B091AD010196A11DB11D8093D2
:100B2000AA019093AB01A093AC01B093AD01BF912A
:100B3000AF919F918F913F912F910F900FBE0F908A
:100B40001F9018953FB7F8948091AA019091AB013E
:100B5000A091AC01B091AD0126B5A89B05C02F3F77
:100B600019F00196A11DB11D3FBF6627782F892F6F
:100B70009A2F620F711D811D911D42E0660F771F34
:100B8000881F991F4A95D1F70895CF92DF92EF926F
:100B9000FF92CF93DF936B017C010E94A205EB01D2
:100BA000C114D104E104F10479F00E94A2056C1B88
:100BB0007D0B683E7340A0F381E0C81AD108E108BC
:100BC000F108C851DC4FECCFDF91CF91FF90EF904F
:100BD000DF90CF900895789484B5826084BD84B509
:100BE000816084BD85B5826085BD85B5816085BD28
:100BF000EEE6F0E0808181608083E1E8F0E0108241
:100C0000808182608083808181608083E0E8F0E081
:100C1000808181608083E1EBF0E08081846080836B
:100C2000E0EBF0E0808181608083EAE7F0E08081A2
:100C30008460808380818260808380818160808302
:100C40008081806880831092C10008950C942806EA
:100C50008091AE01811105C00E94EB0581E0809377
:100C6000AE0180E090E00895EF92FF920F931F9302
:100C70000E9441061F910F91FF90EF9008950C94F0
:100C80008406EF92FF920F931F93C90121E0E216B1
:100C9000F10441F022E0E216F10431F0EF2839F5D9
:100CA00020E003C020E301C020E20115110521F07E
:100CB00001301105F9F4285F8130910559F01CF4D9
:100CC000892B59F01AC08230910531F00397A9F4AD
:100CD0002A5F03C02E5F01C02C5F80EB91E00E9471
:100CE000BA0781E08093AF0180E090E008C080E027
:100CF00094E805C081E094E802C082E094E81F9186
:100D00000F91FF90EF9008958091AF018823C9F073
:100D100061157105C9F0FB0101900020E9F7AF01F1
:100D200041505109461B570BE091B001F091B101C0
:100D30000280F381E02D80EB91E0099580E090E066
:100D4000089585E094E8089583E094E808950C946C
:100D5000D5000F930E94A9010F910895FC012485ED
:100D60003585F901E05CFF4F80819181F901EE5BEF
:100D7000FF4F20813181821B930B8F739927089538
:100D8000FC0184859585FC01E05CFF4F4081518129
:100D9000FC01EE5BFF4F208131814217530741F088
:100DA0000190F081E02DE80FF91F808190E0089517
:100DB0008FEF9FEF0895FC0184859585FC01E05C31
:100DC000FF4F40815181FC01EE5BFF4F208131815B
:100DD0004217530779F0A081B181A80FB91F8C91F8
:100DE000208131812F5F3F4F2F7333273183208341
:100DF00090E008958FEF9FEF0895FC0181A1882373
:100E000029F0A489B5898C9186FFFBCF11A20895A2
:100E1000CF93DF93FC0126853785D901A05CBF4FB6
:100E20008D919C91119701968F739927E901CE5B63
:100E3000DF4F4881598184179507D9F30D90BC91F4
:100E4000A02DA20FB31F6C93A685B785A05CBF4FE2
:100E500011969C938E93A689B7892C9181E090E09E
:100E6000078C02C0880F991F0A94E2F7282B2C9355
:100E700081E081A30488F589E02D808180648083EE
:100E800081E090E0DF91CF9108951F920F920FB60D
:100E90000F9211242F933F934F938F939F93EF9330
:100EA000FF938091C00082FD1CC04091C6008091DC
:100EB00056029091570201968F73992720915802FC
:100EC000309159028217930771F0E0915602F09128
:100ED0005702EA5EFD4F408390935702809356027B
:100EE00002C08091C600FF91EF919F918F914F9129
:100EF0003F912F910F900FBE0F901F9018951F924A
:100F00000F920FB60F9211242F933F938F939F93BD
:100F1000EF93FF93209112023091130280911402FB
:100F2000909115022817390731F48091C1008F7D07
:100F30008093C10014C0E0911402F0911502EE52AA
:100F4000FE4F2081809114029091150201968F73BB
:100F5000992790931502809314022093C600FF9165
:100F6000EF919F918F913F912F910F900FBE0F9016
:100F70001F901895BF92CF92DF92EF92FF92CF937E
:100F8000DF93EC016A017B01B22E411581EE580717
:100F900061057105F9F0EC89FD8981E090E008A018
:100FA00002C0880F991F0A94E2F7808360E079E01D
:100FB0008DE390E0A70196010E94F70B21503109C3
:100FC000410951095695479537952795211580E197
:100FD000380798F0EC89FD89108260E874E88EE1AA
:100FE00090E0A70196010E94F70B215031094109B9
:100FF00051095695479537952795E889F9893083A2
:10100000EA89FB892083E88DF98DB082EE89FF891A
:10101000408181E090E09C010C8C02C0220F331FC4
:101020000A94E2F7422B4083EE89FF8940819C01BC
:101030000D8C02C0220F331F0A94E2F7422B40832B
:10104000EE89FF8940819C010E8C02C0220F331F64
:101050000A94E2F7422B4083EE89FF8920810F8CAE
:1010600002C0880F991F0A94E2F78095822380833B
:10107000DF91CF91FF90EF90DF90CF90BF900895D8
:101080001092B3011092B20188EE93E0A0E0B0E0BC
:101090008093B4019093B501A093B601B093B701CA
:1010A00085E891E09093B1018093B00186E192E0F0
:1010B0009093BD018093BC0182ED91E09093BF01BC
:1010C0008093BE0185EC90E09093C1018093C001B4
:1010D00084EC90E09093C3018093C20180EC90E097
:1010E0009093C5018093C40181EC90E09093C70177
:1010F0008093C60182EC90E09093C9018093C8016F
:1011000086EC90E09093CB018093CA0184E08093B9
:10111000CC0183E08093CD0187E08093CE0185E010
:101120008093CF0181E08093D0010895CF92DF9228
:10113000EF92FF920F931F93CF93DF936C017A018D
:10114000EB01E60EF71E00E010E0CE15DF0561F0C2
:101150006991D601ED91FC910190F081E02DC601DD
:101160000995080F191FF1CFC801DF91CF911F9189
:101170000F91FF90EF90DF90CF90089580918A02B9
:1011800090E020918B02821B9109089520918B029F
:1011900080918A02281750F4E22FF0E0E457FD4FC7
:1011A000808190E02F5F20938B0208958FEF9FEF57
:1011B0000895E0918B0280918A02E81730F4F0E004
:1011C000E457FD4F808190E008958FEF9FEF0895E1
:1011D0000895CF92DF92EF92FF920F931F93CF93D8
:1011E000DF937C01CB018A0120916602222389F0E2
:1011F000EB016B01C40ED51ECC15DD0569F06991BC
:10120000D701ED91FC910190F081E02DC701099586
:10121000F3CF642F0E94420AC801DF91CF911F9142
:101220000F91FF90EF90DF90CF900895CF93DF93D1
:101230001F92CDB7DEB76983209166022223D1F0D9
:1012400020916702203240F021E030E0FC0133833E
:10125000228380E090E015C080916802E82FF0E0E2
:10126000E759FD4F998190838F5F80936802809347
:10127000670205C061E0CE0101960E94420A81E04A
:1012800090E00F90DF91CF910895FC0113821282BC
:1012900048EE53E060E070E04483558366837783D3
:1012A00085E991E091838083089510928B021092DA
:1012B0008A0210926802109267020C948D09862FA0
:1012C000413208F040E26CE872E00E94AB091092F3
:1012D0008B0280938A02089581E080936602609376
:1012E0008902109268021092670208950F93062FE8
:1012F00021E04091670269E672E0809189020E94D4
:10130000EF091092680210926702109266020F9124
:1013100008958AE592E00C9445091092190381E042
:10132000809317031092160361E082E10E94C10BC3
:1013300061E083E10E94C10BE9EBF0E080818E7FE8
:10134000808380818D7F808388E48093B80085E4EA
:101350008093BC000895413208F03FC0909119037A
:101360009111FCCF91E090931903209317032FEF75
:101370002093AC021092F102240F2093F00290937C
:10138000180390911803880F892B8093180380917C
:101390001603813041F41092160380911803809354
:1013A000BB0085EC01C085EE8093BC0080911903E1
:1013B0008130E1F38091F102841710F44091F10241
:1013C00022EF32E0FB01D9018A2F821B841718F427
:1013D0008D918193F9CF842F089580E008950F9324
:1013E000413208F046C0909119039111FCCF92E070
:1013F00090931903009317039FEF9093AC02109200
:10140000F1024093F002FB0162EF72E0DB019A2FE0
:10141000961B941718F491919D93F9CF109218038D
:1014200090911803880F892B8093180380911603DD
:10143000813041F410921603809118038093BB0011
:1014400085EC01C085EE8093BC00222321F08091C1
:1014500019038230E1F38091AC028F3F61F08091FB
:10146000AC02803251F08091AC02803341F483E0D1
:1014700007C081E005C080E003C082E001C084E0D5
:101480000F910895613298F420911903243089F462
:101490006093CE02FC0180ED92E0DC012A2F281B34
:1014A000261718F421912D93F9CF80E0089581E05B
:1014B000089582E0089585ED8093BC008091BC0082
:1014C00084FDFCCF10921903089585EC8093BC0035
:1014D0001092190308951F920F920FB60F921124C4
:1014E0002F933F934F935F936F937F938F939F932C
:1014F000AF93BF93EF93FF938091B900887F8036BD
:1015000009F49CC068F5883209F45BC090F480311E
:1015100009F454C038F4882309F4F5C0883009F47C
:101520004DC0F5C0883109F44CC0803209F45DC06B
:10153000EEC0803409F468C048F4803309F455C023
:10154000883309F0E4C08093AC02A8C0803509F468
:101550004FC0883509F45DC0883409F0D8C0D5C0C3
:10156000883909F4C6C0A8F4883709F467C038F48C
:10157000883609F463C0803709F460C0C8C0883871
:1015800009F4B7C0803909F45FC0803809F0BFC0E2
:101590005BC0803B09F485C038F4803A09F466C02A
:1015A000883A09F47EC0B3C0803C09F4A6C0883CE8
:1015B00009F4A3C0883B09F489C0A9C0809118032D
:1015C00010C09091F1028091F002981770F5E091AF
:1015D000F10281E08E0F8093F102F0E0EE50FD4FBA
:1015E00080818093BB0085EC85C08093AC028DC068
:1015F000E091F10281E08E0F8093F1028091BB00B7
:10160000F0E0EE50FD4F80839091F1028091F00266
:101610006DC0E091F10281E08E0F8093F102809124
:10162000BB00F0E0EE50FD4F8083809117038111E5
:101630006CC081E08093160384EA60C083E08093ED
:1016400019031092AD02CFCF8091AD02803208F025
:1016500050C0E091AD0281E08E0F8093AD02809189
:10166000BB00F0E0E255FD4F8083BDCF8091AD021D
:10167000803230F4E091AD02F0E0E255FD4F10828F
:101680000E945B0A6091AD0270E0E0911203F0915C
:1016900013038EEA92E009951092AD020E94650A4A
:1016A00036C084E0809319031092CF021092CE02CC
:1016B000E0911403F091150309958091CE028111F8
:1016C00005C081E08093CE021092D002E091CF025B
:1016D00081E08E0F8093CF02F0E0E053FD4F8081D8
:1016E0008093BB009091CF028091CE02981708F4AE
:1016F0007ACF85E88093BC000AC085EC8093BC005B
:101700001092190304C01092AC020E945B0AFF9170
:10171000EF91BF91AF919F918F917F916F915F9169
:101720004F913F912F910F900FBE0F901F901895E2
:10173000833081F028F4813099F08230A1F008954F
:101740008630A9F08730B9F08430D1F480918000E0
:101750008F7D03C0809180008F77809380000895F3
:1017600084B58F7702C084B58F7D84BD0895809144
:10177000B0008F7703C08091B0008F7D8093B00060
:1017800008950F931F93CF93DF931F92CDB7DEB7CA
:10179000282F30E0F901E859FF4F8491F901E4580E
:1017A000FF4F1491F901E057FF4F04910023C9F056
:1017B000882321F069830E94980B6981E02FF0E073
:1017C000EE0FFF1FEC55FF4FA591B4919FB7F89412
:1017D0008C91611103C01095812301C0812B8C93E2
:1017E0009FBF0F90DF91CF911F910F910895A1E2BC
:1017F0001A2EAA1BBB1BFD010DC0AA1FBB1FEE1F8B
:10180000FF1FA217B307E407F50720F0A21BB30BD5
:10181000E40BF50B661F771F881F991F1A9469F751
:1018200060957095809590959B01AC01BD01CF01AD
:101830000895EE0FFF1F0590F491E02D099498D0C4
:1018400088F09F5790F0B92F9927B751A0F0D1F0A9
:10185000660F771F881F991F1AF0BA95C9F712C033
:10186000B13081F09FD0B1E008959CC0672F782FF0
:101870008827B85F39F0B93FCCF38695779567959F
:10188000B395D9F73EF490958095709561957F4F0B
:101890008F4F9F4F0895E89409C097FB3EF49095B1
:1018A0008095709561957F4F8F4F9F4F9923A9F039
:1018B000F92F96E9BB279395F695879577956795C8
:1018C000B795F111F8CFFAF4BB0F11F460FF1BC00C
:1018D0006F5F7F4F8F4F9F4F16C0882311F096E99F
:1018E00011C0772321F09EE8872F762F05C066234D
:1018F00071F096E8862F70E060E02AF09A95660F06
:10190000771F881FDAF7880F9695879597F90895BE
:1019100097F99F6780E870E060E008959FEF80ECA2
:10192000089500240A941616170618060906089545
:1019300000240A9412161306140605060895092EAB
:101940000394000C11F4882352F0BB0F40F4BF2B1A
:1019500011F460FF04C06F5F7F4F8F4F9F4F08955A
:1019600057FD9058440F551F59F05F3F71F0479550
:10197000880F97FB991F61F09F3F79F08795089535
:10198000121613061406551FF2CF4695F1DF08C054
:10199000161617061806991FF1CF86957105610571
:1019A00008940895E894BB2766277727CB0197F919
:1019B00008950BD0C4CFB5DF28F0BADF18F0952317
:1019C00009F0A6CFABCF1124EECFCADFA0F3959FCD
:1019D000D1F3950F50E0551F629FF001729FBB2716
:1019E000F00DB11D639FAA27F00DB11DAA1F649FC2
:1019F0006627B00DA11D661F829F2227B00DA11D75
:101A0000621F739FB00DA11D621F839FA00D611DFA
:101A1000221F749F3327A00D611D231F849F600D1B
:101A2000211D822F762F6A2F11249F5750408AF054
:101A3000E1F088234AF0EE0FFF1FBB1F661F771FE0
:101A4000881F91505040A9F79E3F510570F060CF1C
:101A5000AACF5F3FECF3983EDCF3869577956795C8
:101A6000B795F795E7959F5FC1F7FE2B880F911DFE
:101A70009695879597F90895AEE0B0E0E2E4FDE031
:101A80000C94EE0F8C01CA0146E04C831A83098343
:101A900077FF02C060E070E8615071097E836D835A
:101AA000A901BC01CE0101960E94680D4D815E81A5
:101AB00057FD0AC02F813885421753070CF49A014D
:101AC000F801E20FF31F10822E96E4E00C940A1046
:101AD000ACE0B0E0EEE6FDE00C94E00F7C016B01C1
:101AE0008A01FC0117821682838181FFBDC1CE016C
:101AF00001964C01F7019381F60193FD859193FFC7
:101B000081916F01882309F4ABC1853239F493FDCB
:101B1000859193FF81916F01853229F4B70190E09F
:101B20000E94500FE7CF512C312C20E02032A0F43E
:101B30008B3269F030F4803259F0833269F42061DD
:101B40002CC08D3239F0803339F4216026C02260F8
:101B5000246023C0286021C027FD27C030ED380F46
:101B60003A3078F426FF06C0FAE05F9E300D11246B
:101B7000532E13C08AE0389E300D1124332E20627C
:101B80000CC08E3221F426FD6BC1206406C08C3659
:101B900011F4206802C0883641F4F60193FD859166
:101BA00093FF81916F018111C1CF982F9F7D955433
:101BB000933028F40C5F1F4FFFE3F9830DC0833689
:101BC00031F0833771F0833509F05BC022C0F80132
:101BD000808189830E5F1F4F44244394512C54010C
:101BE00015C03801F2E06F0E711CF801A080B180C1
:101BF00026FF03C0652D70E002C06FEF7FEFC501C7
:101C00002C870E94450F2C0183012C852F77222ED3
:101C100017C03801F2E06F0E711CF801A080B1808E
:101C200026FF03C0652D70E002C06FEF7FEFC50196
:101C30002C870E943A0F2C012C852068222E8301CC
:101C400023FC1BC0832D90E048165906B0F4B70161
:101C500080E290E00E94500F3A94F4CFF50127FC07
:101C6000859127FE81915F01B70190E00E94500F9E
:101C700031103A94F1E04F1A51084114510471F7B0
:101C8000E5C0843611F0893639F5F80127FF07C021
:101C900060817181828193810C5F1F4F08C06081D8
:101CA0007181882777FD8095982F0E5F1F4F2F76C3
:101CB000B22E97FF09C090958095709561957F4FE2
:101CC0008F4F9F4F2068B22E2AE030E0A4010E947F
:101CD000820FA82EA81844C0853729F42F7EB22E73
:101CE0002AE030E025C0F22FF97FBF2E8F36C1F0F9
:101CF00018F4883579F0B4C0803719F0883721F0AE
:101D0000AFC02F2F2061B22EB4FE0DC08B2D84608A
:101D1000B82E09C024FF0AC09F2F9660B92E06C0B6
:101D200028E030E005C020E130E002C020E132E0F0
:101D3000F801B7FE07C060817181828193810C5FD9
:101D40001F4F06C06081718180E090E00E5F1F4FE1
:101D5000A4010E94820FA82EA818FB2DFF77BF2E8A
:101D6000B6FE0BC02B2D2E7FA51450F4B4FE0AC076
:101D7000B2FC08C02B2D2E7E05C07A2C2B2D03C063
:101D80007A2C01C0752C24FF0DC0FE01EA0DF11D57
:101D90008081803311F4297E09C022FF06C073942C
:101DA000739404C0822F867809F0739423FD13C0C6
:101DB00020FF06C05A2C731418F4530C5718732CB8
:101DC000731468F4B70180E290E02C870E94500FF2
:101DD00073942C85F5CF731410F4371801C0312C8F
:101DE00024FF12C0B70180E390E02C870E94500FBF
:101DF0002C8522FF17C021FF03C088E590E002C0B8
:101E000088E790E0B7010CC0822F867859F021FD59
:101E100002C080E201C08BE227FD8DE2B70190E0B5
:101E20000E94500FA51438F4B70180E390E00E949F
:101E3000500F5A94F7CFAA94F401EA0DF11D808156
:101E4000B70190E00E94500FA110F5CF332009F4A4
:101E500051CEB70180E290E00E94500F3A94F6CF45
:101E6000F7018681978102C08FEF9FEF2C96E2E108
:101E70000C94FC0FFC010590615070400110D8F7E4
:101E8000809590958E0F9F1F0895FC0161507040C2
:101E900001900110D8F7809590958E0F9F1F08959F
:101EA0000F931F93CF93DF93182F092FEB018B8193
:101EB00081FD03C08FEF9FEF20C082FF10C04E81D5
:101EC0005F812C813D81421753077CF4E881F981C1
:101ED0009F012F5F3F4F39832883108306C0E88519
:101EE000F985812F0995892B29F72E813F812F5F55
:101EF0003F4F3F832E83812F902FDF91CF911F91F2
:101F00000F910895FA01AA27283051F1203181F16B
:101F1000E8946F936E7F6E5F7F4F8F4F9F4FAF4FF1
:101F2000B1E03ED0B4E03CD0670F781F891F9A1F04
:101F3000A11D680F791F8A1F911DA11D6A0F711DB8
:101F4000811D911DA11D20D009F468943F912AE0C4
:101F5000269F11243019305D3193DEF6CF010895AC
:101F6000462F4770405D4193B3E00FD0C9F7F6CFDD
:101F7000462F4F70405D4A3318F0495D31FD4052A5
:101F8000419302D0A9F7EACFB4E0A695979587953B
:101F900077956795BA95C9F700976105710508951A
:101FA0009B01AC010A2E06945795479537952795C6
:101FB000BA95C9F7620F731F841F951FA01D08955E
:101FC0002F923F924F925F926F927F928F929F9249
:101FD000AF92BF92CF92DF92EF92FF920F931F9337
:101FE000CF93DF93CDB7DEB7CA1BDB0B0FB6F894E8
:101FF000DEBF0FBECDBF09942A88398848885F8428
:102000006E847D848C849B84AA84B984C884DF8098
:10201000EE80FD800C811B81AA81B981CE0FD11D7C
:102020000FB6F894DEBF0FBECDBFED010895F89452
:02203000FFCFE0
:1020320000001A0320000C011A01240141636365A8
:102042006C65726F6D65746572004779726F736348
:102052006F706500436F6D7061737300494D555F1A
:102062005265736574002573202D204572726F725C
:102072003A203078253034580A00494D555F496E70
:10208200697469616C697A6500494D555F53656E83
:10209200736F7252656164696E6700257320583AE6
:1020A20020256420593A202564205A3A2025640AC2
:1020B200000000000008079608AE06DB06C006FD19
:1020C20006000000001609E908BE08C608D908E89B
:0220D200080004
:00000001FF
